{
  "_format": "hh-sol-artifact-1",
  "contractName": "MyEpicNFT",
  "sourceName": "contracts/MyEpicNFT.sol",
  "abi": [
    {
      "inputs": [],
      "stateMutability": "nonpayable",
      "type": "constructor"
    },
    {
      "anonymous": false,
      "inputs": [
        {
          "indexed": true,
          "internalType": "address",
          "name": "owner",
          "type": "address"
        },
        {
          "indexed": true,
          "internalType": "address",
          "name": "approved",
          "type": "address"
        },
        {
          "indexed": true,
          "internalType": "uint256",
          "name": "tokenId",
          "type": "uint256"
        }
      ],
      "name": "Approval",
      "type": "event"
    },
    {
      "anonymous": false,
      "inputs": [
        {
          "indexed": true,
          "internalType": "address",
          "name": "owner",
          "type": "address"
        },
        {
          "indexed": true,
          "internalType": "address",
          "name": "operator",
          "type": "address"
        },
        {
          "indexed": false,
          "internalType": "bool",
          "name": "approved",
          "type": "bool"
        }
      ],
      "name": "ApprovalForAll",
      "type": "event"
    },
    {
      "anonymous": false,
      "inputs": [
        {
          "indexed": false,
          "internalType": "address",
          "name": "sender",
          "type": "address"
        },
        {
          "indexed": false,
          "internalType": "uint256",
          "name": "token",
          "type": "uint256"
        }
      ],
      "name": "NewEpicNFTMinted",
      "type": "event"
    },
    {
      "anonymous": false,
      "inputs": [
        {
          "indexed": false,
          "internalType": "uint256",
          "name": "total_Minted",
          "type": "uint256"
        }
      ],
      "name": "NumberNFTMinted",
      "type": "event"
    },
    {
      "anonymous": false,
      "inputs": [
        {
          "indexed": true,
          "internalType": "address",
          "name": "from",
          "type": "address"
        },
        {
          "indexed": true,
          "internalType": "address",
          "name": "to",
          "type": "address"
        },
        {
          "indexed": true,
          "internalType": "uint256",
          "name": "tokenId",
          "type": "uint256"
        }
      ],
      "name": "Transfer",
      "type": "event"
    },
    {
      "inputs": [
        {
          "internalType": "address",
          "name": "to",
          "type": "address"
        },
        {
          "internalType": "uint256",
          "name": "tokenId",
          "type": "uint256"
        }
      ],
      "name": "approve",
      "outputs": [],
      "stateMutability": "nonpayable",
      "type": "function"
    },
    {
      "inputs": [
        {
          "internalType": "address",
          "name": "owner",
          "type": "address"
        }
      ],
      "name": "balanceOf",
      "outputs": [
        {
          "internalType": "uint256",
          "name": "",
          "type": "uint256"
        }
      ],
      "stateMutability": "view",
      "type": "function"
    },
    {
      "inputs": [
        {
          "internalType": "uint256",
          "name": "tokenId",
          "type": "uint256"
        }
      ],
      "name": "getApproved",
      "outputs": [
        {
          "internalType": "address",
          "name": "",
          "type": "address"
        }
      ],
      "stateMutability": "view",
      "type": "function"
    },
    {
      "inputs": [],
      "name": "getTotalNFTsMinted",
      "outputs": [],
      "stateMutability": "nonpayable",
      "type": "function"
    },
    {
      "inputs": [
        {
          "internalType": "address",
          "name": "owner",
          "type": "address"
        },
        {
          "internalType": "address",
          "name": "operator",
          "type": "address"
        }
      ],
      "name": "isApprovedForAll",
      "outputs": [
        {
          "internalType": "bool",
          "name": "",
          "type": "bool"
        }
      ],
      "stateMutability": "view",
      "type": "function"
    },
    {
      "inputs": [],
      "name": "makeAnEpicNFT",
      "outputs": [],
      "stateMutability": "nonpayable",
      "type": "function"
    },
    {
      "inputs": [],
      "name": "name",
      "outputs": [
        {
          "internalType": "string",
          "name": "",
          "type": "string"
        }
      ],
      "stateMutability": "view",
      "type": "function"
    },
    {
      "inputs": [
        {
          "internalType": "uint256",
          "name": "tokenId",
          "type": "uint256"
        }
      ],
      "name": "ownerOf",
      "outputs": [
        {
          "internalType": "address",
          "name": "",
          "type": "address"
        }
      ],
      "stateMutability": "view",
      "type": "function"
    },
    {
      "inputs": [
        {
          "internalType": "uint256",
          "name": "tokenId",
          "type": "uint256"
        }
      ],
      "name": "pickRandomColor",
      "outputs": [
        {
          "internalType": "string",
          "name": "",
          "type": "string"
        }
      ],
      "stateMutability": "view",
      "type": "function"
    },
    {
      "inputs": [
        {
          "internalType": "uint256",
          "name": "tokenId",
          "type": "uint256"
        }
      ],
      "name": "pickRandomFirstWord",
      "outputs": [
        {
          "internalType": "string",
          "name": "",
          "type": "string"
        }
      ],
      "stateMutability": "view",
      "type": "function"
    },
    {
      "inputs": [
        {
          "internalType": "uint256",
          "name": "tokenId",
          "type": "uint256"
        }
      ],
      "name": "pickRandomSecondWord",
      "outputs": [
        {
          "internalType": "string",
          "name": "",
          "type": "string"
        }
      ],
      "stateMutability": "view",
      "type": "function"
    },
    {
      "inputs": [
        {
          "internalType": "uint256",
          "name": "tokenId",
          "type": "uint256"
        }
      ],
      "name": "pickRandomThirdWord",
      "outputs": [
        {
          "internalType": "string",
          "name": "",
          "type": "string"
        }
      ],
      "stateMutability": "view",
      "type": "function"
    },
    {
      "inputs": [
        {
          "internalType": "address",
          "name": "from",
          "type": "address"
        },
        {
          "internalType": "address",
          "name": "to",
          "type": "address"
        },
        {
          "internalType": "uint256",
          "name": "tokenId",
          "type": "uint256"
        }
      ],
      "name": "safeTransferFrom",
      "outputs": [],
      "stateMutability": "nonpayable",
      "type": "function"
    },
    {
      "inputs": [
        {
          "internalType": "address",
          "name": "from",
          "type": "address"
        },
        {
          "internalType": "address",
          "name": "to",
          "type": "address"
        },
        {
          "internalType": "uint256",
          "name": "tokenId",
          "type": "uint256"
        },
        {
          "internalType": "bytes",
          "name": "_data",
          "type": "bytes"
        }
      ],
      "name": "safeTransferFrom",
      "outputs": [],
      "stateMutability": "nonpayable",
      "type": "function"
    },
    {
      "inputs": [
        {
          "internalType": "address",
          "name": "operator",
          "type": "address"
        },
        {
          "internalType": "bool",
          "name": "approved",
          "type": "bool"
        }
      ],
      "name": "setApprovalForAll",
      "outputs": [],
      "stateMutability": "nonpayable",
      "type": "function"
    },
    {
      "inputs": [
        {
          "internalType": "bytes4",
          "name": "interfaceId",
          "type": "bytes4"
        }
      ],
      "name": "supportsInterface",
      "outputs": [
        {
          "internalType": "bool",
          "name": "",
          "type": "bool"
        }
      ],
      "stateMutability": "view",
      "type": "function"
    },
    {
      "inputs": [],
      "name": "symbol",
      "outputs": [
        {
          "internalType": "string",
          "name": "",
          "type": "string"
        }
      ],
      "stateMutability": "view",
      "type": "function"
    },
    {
      "inputs": [
        {
          "internalType": "uint256",
          "name": "tokenId",
          "type": "uint256"
        }
      ],
      "name": "tokenURI",
      "outputs": [
        {
          "internalType": "string",
          "name": "",
          "type": "string"
        }
      ],
      "stateMutability": "view",
      "type": "function"
    },
    {
      "inputs": [
        {
          "internalType": "address",
          "name": "from",
          "type": "address"
        },
        {
          "internalType": "address",
          "name": "to",
          "type": "address"
        },
        {
          "internalType": "uint256",
          "name": "tokenId",
          "type": "uint256"
        }
      ],
      "name": "transferFrom",
      "outputs": [],
      "stateMutability": "nonpayable",
      "type": "function"
    }
  ],
  "bytecode": "0x6080604052600060085560405180610100016040528060d1815260200162004e8460d19139600990805190602001906200003b92919062000c95565b5060405180608001604052806056815260200162004f5560569139600a90805190602001906200006d92919062000c95565b506040518061014001604052806040518060400160405280600481526020017f48617a200000000000000000000000000000000000000000000000000000000081525081526020016040518060400160405280600881526020017f507265706172612000000000000000000000000000000000000000000000000081525081526020016040518060400160405280600581526020017f417361722000000000000000000000000000000000000000000000000000000081525081526020016040518060400160405280600781526020017f486572766972200000000000000000000000000000000000000000000000000081525081526020016040518060400160405280600881526020017f436f63696e61722000000000000000000000000000000000000000000000000081525081526020016040518060400160405280600681526020017f467265697220000000000000000000000000000000000000000000000000000081525081526020016040518060400160405280600881526020017f486f726e6561722000000000000000000000000000000000000000000000000081525081526020016040518060400160405280600681526020017f426174697220000000000000000000000000000000000000000000000000000081525081526020016040518060400160405280600681526020017f436f63657220000000000000000000000000000000000000000000000000000081525081526020016040518060400160405280600881526020017f5661706f72656120000000000000000000000000000000000000000000000000815250815250600b90600a620002d892919062000d26565b50604051806101c001604052806040518060400160405280600781526020017f56656e61646f200000000000000000000000000000000000000000000000000081525081526020016040518060400160405280600481526020017f4f736f200000000000000000000000000000000000000000000000000000000081525081526020016040518060400160405280600781526020017f436f6e656a6f200000000000000000000000000000000000000000000000000081525081526020016040518060400160405280600581526020017f5061746f2000000000000000000000000000000000000000000000000000000081525081526020016040518060400160405280600881526020017f4c656368757a612000000000000000000000000000000000000000000000000081525081526020016040518060400160405280600881526020017f476f7272696f6e2000000000000000000000000000000000000000000000000081525081526020016040518060400160405280600581526020017f4c656f6e2000000000000000000000000000000000000000000000000000000081525081526020016040518060400160405280600581526020017f50756d612000000000000000000000000000000000000000000000000000000081525081526020016040518060400160405280600781526020017f416775696c61200000000000000000000000000000000000000000000000000081525081526020016040518060400160405280600a81526020017f5365727069656e7465200000000000000000000000000000000000000000000081525081526020016040518060400160405280600781526020017f477573616e6f200000000000000000000000000000000000000000000000000081525081526020016040518060400160405280600681526020017f506f6c6c6f20000000000000000000000000000000000000000000000000000081525081526020016040518060400160405280600681526020017f436572646f20000000000000000000000000000000000000000000000000000081525081526020016040518060400160405280600581526020017f5661636120000000000000000000000000000000000000000000000000000000815250815250600c90600e6200062f92919062000d8d565b50604051806101a001604052806040518060400160405280600981526020017f456e6368696c61646f000000000000000000000000000000000000000000000081525081526020016040518060400160405280600a81526020017f56657264756c6561646f0000000000000000000000000000000000000000000081525081526020016040518060400160405280600581526020017f417361646f00000000000000000000000000000000000000000000000000000081525081526020016040518060400160405280600a81526020017f456e63616d6f7461646f0000000000000000000000000000000000000000000081525081526020016040518060400160405280600a81526020017f456e43616c6162617a610000000000000000000000000000000000000000000081525081526020016040518060400160405280600781526020017f506f626c616e6f0000000000000000000000000000000000000000000000000081525081526020016040518060400160405280600881526020017f456e4d6f6c61646f00000000000000000000000000000000000000000000000081525081526020016040518060400160405280600b81526020017f436f6e566572647572617300000000000000000000000000000000000000000081525081526020016040518060400160405280600a81526020017f4f617861717565c3b16f0000000000000000000000000000000000000000000081525081526020016040518060400160405280600881526020017f4e6f727465c3b16f00000000000000000000000000000000000000000000000081525081526020016040518060400160405280600881526020017f636f6e517565736f00000000000000000000000000000000000000000000000081525081526020016040518060400160405280600781526020017f52656c6c656e6f0000000000000000000000000000000000000000000000000081525081526020016040518060400160405280600a81526020017f414c617342726173617300000000000000000000000000000000000000000000815250815250600d90600d6200094b92919062000df4565b506040518060c001604052806040518060400160405280600581526020017f776869746500000000000000000000000000000000000000000000000000000081525081526020016040518060400160405280600781526020017f233363303134320000000000000000000000000000000000000000000000000081525081526020016040518060400160405280600581526020017f626c61636b00000000000000000000000000000000000000000000000000000081525081526020016040518060400160405280600681526020017f79656c6c6f77000000000000000000000000000000000000000000000000000081525081526020016040518060400160405280600481526020017f626c75650000000000000000000000000000000000000000000000000000000081525081526020016040518060400160405280600581526020017f677265656e000000000000000000000000000000000000000000000000000000815250815250600e90600662000ac992919062000e5b565b5034801562000ad757600080fd5b506040518060400160405280600a81526020017f4372617a7920466f6f64000000000000000000000000000000000000000000008152506040518060400160405280600281526020017f4346000000000000000000000000000000000000000000000000000000000000815250816000908051906020019062000b5c92919062000c95565b50806001908051906020019062000b7592919062000c95565b50505062000bc36040518060400160405280601881526020017f4d79204e465420636f6e7472616374206261626965732121000000000000000081525062000bc960201b6200131a1760201c565b6200107c565b62000c698160405160240162000be0919062000f90565b6040516020818303038152906040527f41304fac000000000000000000000000000000000000000000000000000000007bffffffffffffffffffffffffffffffffffffffffffffffffffffffff19166020820180517bffffffffffffffffffffffffffffffffffffffffffffffffffffffff838183161783525050505062000c6c60201b60201c565b50565b60008151905060006a636f6e736f6c652e6c6f679050602083016000808483855afa5050505050565b82805462000ca39062001006565b90600052602060002090601f01602090048101928262000cc7576000855562000d13565b82601f1062000ce257805160ff191683800117855562000d13565b8280016001018555821562000d13579182015b8281111562000d1257825182559160200191906001019062000cf5565b5b50905062000d22919062000ec2565b5090565b82805482825590600052602060002090810192821562000d7a579160200282015b8281111562000d7957825182908051906020019062000d6892919062000c95565b509160200191906001019062000d47565b5b50905062000d89919062000ee1565b5090565b82805482825590600052602060002090810192821562000de1579160200282015b8281111562000de057825182908051906020019062000dcf92919062000c95565b509160200191906001019062000dae565b5b50905062000df0919062000ee1565b5090565b82805482825590600052602060002090810192821562000e48579160200282015b8281111562000e4757825182908051906020019062000e3692919062000c95565b509160200191906001019062000e15565b5b50905062000e57919062000ee1565b5090565b82805482825590600052602060002090810192821562000eaf579160200282015b8281111562000eae57825182908051906020019062000e9d92919062000c95565b509160200191906001019062000e7c565b5b50905062000ebe919062000ee1565b5090565b5b8082111562000edd57600081600090555060010162000ec3565b5090565b5b8082111562000f05576000818162000efb919062000f09565b5060010162000ee2565b5090565b50805462000f179062001006565b6000825580601f1062000f2b575062000f4c565b601f01602090049060005260206000209081019062000f4b919062000ec2565b5b50565b600062000f5c8262000fb4565b62000f68818562000fbf565b935062000f7a81856020860162000fd0565b62000f85816200106b565b840191505092915050565b6000602082019050818103600083015262000fac818462000f4f565b905092915050565b600081519050919050565b600082825260208201905092915050565b60005b8381101562000ff057808201518184015260208101905062000fd3565b8381111562001000576000848401525b50505050565b600060028204905060018216806200101f57607f821691505b602082108114156200103657620010356200103c565b5b50919050565b7f4e487b7100000000000000000000000000000000000000000000000000000000600052602260045260246000fd5b6000601f19601f8301169050919050565b613df8806200108c6000396000f3fe608060405234801561001057600080fd5b50600436106101215760003560e01c806370a08231116100ad578063b88d4fde11610071578063b88d4fde1461032c578063c575757a14610348578063c87b56dd14610378578063de9d132f146103a8578063e985e9c5146103b257610121565b806370a082311461028857806395d89b41146102b8578063a22cb465146102d6578063b187301f146102f2578063b4c3b8be1461032257610121565b806323b872dd116100f457806323b872dd146101c05780632de38d68146101dc57806342842e0e1461020c578063514dc8c6146102285780636352211e1461025857610121565b806301ffc9a71461012657806306fdde0314610156578063081812fc14610174578063095ea7b3146101a4575b600080fd5b610140600480360381019061013b91906127e2565b6103e2565b60405161014d9190612f6e565b60405180910390f35b61015e6104c4565b60405161016b9190612f89565b60405180910390f35b61018e60048036038101906101899190612834565b610556565b60405161019b9190612ede565b60405180910390f35b6101be60048036038101906101b991906127a6565b6105db565b005b6101da60048036038101906101d591906126a0565b6106f3565b005b6101f660048036038101906101f19190612834565b610753565b6040516102039190612f89565b60405180910390f35b610226600480360381019061022191906126a0565b610871565b005b610242600480360381019061023d9190612834565b610891565b60405161024f9190612f89565b60405180910390f35b610272600480360381019061026d9190612834565b6109af565b60405161027f9190612ede565b60405180910390f35b6102a2600480360381019061029d919061263b565b610a61565b6040516102af9190613239565b60405180910390f35b6102c0610b19565b6040516102cd9190612f89565b60405180910390f35b6102f060048036038101906102eb919061276a565b610bab565b005b61030c60048036038101906103079190612834565b610bc1565b6040516103199190612f89565b60405180910390f35b61032a610cdf565b005b610346600480360381019061034191906126ef565b610d5b565b005b610362600480360381019061035d9190612834565b610dbd565b60405161036f9190612f89565b60405180910390f35b610392600480360381019061038d9190612834565b610edb565b60405161039f9190612f89565b60405180910390f35b6103b061102d565b005b6103cc60048036038101906103c79190612664565b611286565b6040516103d99190612f6e565b60405180910390f35b60007f80ac58cd000000000000000000000000000000000000000000000000000000007bffffffffffffffffffffffffffffffffffffffffffffffffffffffff1916827bffffffffffffffffffffffffffffffffffffffffffffffffffffffff191614806104ad57507f5b5e139f000000000000000000000000000000000000000000000000000000007bffffffffffffffffffffffffffffffffffffffffffffffffffffffff1916827bffffffffffffffffffffffffffffffffffffffffffffffffffffffff1916145b806104bd57506104bc826113b3565b5b9050919050565b6060600080546104d3906134cd565b80601f01602080910402602001604051908101604052809291908181526020018280546104ff906134cd565b801561054c5780601f106105215761010080835404028352916020019161054c565b820191906000526020600020905b81548152906001019060200180831161052f57829003601f168201915b5050505050905090565b60006105618261141d565b6105a0576040517f08c379a000000000000000000000000000000000000000000000000000000000815260040161059790613199565b60405180910390fd5b6004600083815260200190815260200160002060009054906101000a900473ffffffffffffffffffffffffffffffffffffffff169050919050565b60006105e6826109af565b90508073ffffffffffffffffffffffffffffffffffffffff168373ffffffffffffffffffffffffffffffffffffffff161415610657576040517f08c379a000000000000000000000000000000000000000000000000000000000815260040161064e906131d9565b60405180910390fd5b8073ffffffffffffffffffffffffffffffffffffffff16610676611489565b73ffffffffffffffffffffffffffffffffffffffff1614806106a557506106a48161069f611489565b611286565b5b6106e4576040517f08c379a00000000000000000000000000000000000000000000000000000000081526004016106db906130d9565b60405180910390fd5b6106ee8383611491565b505050565b6107046106fe611489565b8261154a565b610743576040517f08c379a000000000000000000000000000000000000000000000000000000000815260040161073a90613219565b60405180910390fd5b61074e838383611628565b505050565b606060006107876107638461188f565b6040516020016107739190612e78565b604051602081830303815290604052611a3c565b9050600b805490508161079a9190613579565b9050600b81815481106107d6577f4e487b7100000000000000000000000000000000000000000000000000000000600052603260045260246000fd5b9060005260206000200180546107eb906134cd565b80601f0160208091040260200160405190810160405280929190818152602001828054610817906134cd565b80156108645780601f1061083957610100808354040283529160200191610864565b820191906000526020600020905b81548152906001019060200180831161084757829003601f168201915b5050505050915050919050565b61088c83838360405180602001604052806000815250610d5b565b505050565b606060006108c56108a18461188f565b6040516020016108b19190612ebc565b604051602081830303815290604052611a3c565b9050600e80549050816108d89190613579565b9050600e8181548110610914577f4e487b7100000000000000000000000000000000000000000000000000000000600052603260045260246000fd5b906000526020600020018054610929906134cd565b80601f0160208091040260200160405190810160405280929190818152602001828054610955906134cd565b80156109a25780601f10610977576101008083540402835291602001916109a2565b820191906000526020600020905b81548152906001019060200180831161098557829003601f168201915b5050505050915050919050565b6000806002600084815260200190815260200160002060009054906101000a900473ffffffffffffffffffffffffffffffffffffffff169050600073ffffffffffffffffffffffffffffffffffffffff168173ffffffffffffffffffffffffffffffffffffffff161415610a58576040517f08c379a0000000000000000000000000000000000000000000000000000000008152600401610a4f90613119565b60405180910390fd5b80915050919050565b60008073ffffffffffffffffffffffffffffffffffffffff168273ffffffffffffffffffffffffffffffffffffffff161415610ad2576040517f08c379a0000000000000000000000000000000000000000000000000000000008152600401610ac9906130f9565b60405180910390fd5b600360008373ffffffffffffffffffffffffffffffffffffffff1673ffffffffffffffffffffffffffffffffffffffff168152602001908152602001600020549050919050565b606060018054610b28906134cd565b80601f0160208091040260200160405190810160405280929190818152602001828054610b54906134cd565b8015610ba15780601f10610b7657610100808354040283529160200191610ba1565b820191906000526020600020905b815481529060010190602001808311610b8457829003601f168201915b5050505050905090565b610bbd610bb6611489565b8383611a6f565b5050565b60606000610bf5610bd18461188f565b604051602001610be19190612e11565b604051602081830303815290604052611a3c565b9050600c8054905081610c089190613579565b9050600c8181548110610c44577f4e487b7100000000000000000000000000000000000000000000000000000000600052603260045260246000fd5b906000526020600020018054610c59906134cd565b80601f0160208091040260200160405190810160405280929190818152602001828054610c85906134cd565b8015610cd25780601f10610ca757610100808354040283529160200191610cd2565b820191906000526020600020905b815481529060010190602001808311610cb557829003601f168201915b5050505050915050919050565b610d206040518060400160405280600c81526020017f4e4654206d696e7465643a200000000000000000000000000000000000000000815250600854611bdc565b7fd7f341233567cbfcc9c1f03f633b404756c1a47f456c99e8629fee9b04ce7326600854604051610d519190613239565b60405180910390a1565b610d6c610d66611489565b8361154a565b610dab576040517f08c379a0000000000000000000000000000000000000000000000000000000008152600401610da290613219565b60405180910390fd5b610db784848484611c78565b50505050565b60606000610df1610dcd8461188f565b604051602001610ddd9190612def565b604051602081830303815290604052611a3c565b9050600d8054905081610e049190613579565b9050600d8181548110610e40577f4e487b7100000000000000000000000000000000000000000000000000000000600052603260045260246000fd5b906000526020600020018054610e55906134cd565b80601f0160208091040260200160405190810160405280929190818152602001828054610e81906134cd565b8015610ece5780601f10610ea357610100808354040283529160200191610ece565b820191906000526020600020905b815481529060010190602001808311610eb157829003601f168201915b5050505050915050919050565b6060610ee68261141d565b610f25576040517f08c379a0000000000000000000000000000000000000000000000000000000008152600401610f1c90613179565b60405180910390fd5b6000600660008481526020019081526020016000208054610f45906134cd565b80601f0160208091040260200160405190810160405280929190818152602001828054610f71906134cd565b8015610fbe5780601f10610f9357610100808354040283529160200191610fbe565b820191906000526020600020905b815481529060010190602001808311610fa157829003601f168201915b505050505090506000610fcf611cd4565b9050600081511415610fe5578192505050611028565b60008251111561101a578082604051602001611002929190612d51565b60405160208183030381529060405292505050611028565b61102384611ceb565b925050505b919050565b603260085410611072576040517f08c379a0000000000000000000000000000000000000000000000000000000008152600401611069906131f9565b60405180910390fd5b600061107e6007611d92565b9050600061108b82610753565b9050600061109883610bc1565b905060006110a584610dbd565b905060008383836040516020016110be93929190612d75565b604051602081830303815290604052905060006110da86610891565b90506000600982600a856040516020016110f79493929190612da6565b6040516020818303038152906040529050600061113c8461111784611da0565b604051602001611128929190612e33565b604051602081830303815290604052611da0565b90506000816040516020016111519190612e9a565b60405160208183030381529060405290506111a06040518060400160405280601581526020017f0a2d2d2d2d2d2d2d2d2d2d2d2d2d2d2d2d2d2d2d2d000000000000000000000081525061131a565b6111a98161131a565b6111e76040518060400160405280601581526020017f2d2d2d2d2d2d2d2d2d2d2d2d2d2d2d2d2d2d2d2d0a000000000000000000000081525061131a565b6111f1338a611f5e565b6111fb8982611f7c565b61121e604051806060016040528060258152602001613d5e602591398a33611ff0565b6001600860008282546112319190613302565b92505081905550611242600761208f565b7febb98688741ffa4c7589bf325de30cf7becb63de567842e1ccdb6cb949fdc82c338a604051611273929190612f45565b60405180910390a1505050505050505050565b6000600560008473ffffffffffffffffffffffffffffffffffffffff1673ffffffffffffffffffffffffffffffffffffffff16815260200190815260200160002060008373ffffffffffffffffffffffffffffffffffffffff1673ffffffffffffffffffffffffffffffffffffffff16815260200190815260200160002060009054906101000a900460ff16905092915050565b6113b08160405160240161132e9190612f89565b6040516020818303038152906040527f41304fac000000000000000000000000000000000000000000000000000000007bffffffffffffffffffffffffffffffffffffffffffffffffffffffff19166020820180517bffffffffffffffffffffffffffffffffffffffffffffffffffffffff83818316178352505050506120a5565b50565b60007f01ffc9a7000000000000000000000000000000000000000000000000000000007bffffffffffffffffffffffffffffffffffffffffffffffffffffffff1916827bffffffffffffffffffffffffffffffffffffffffffffffffffffffff1916149050919050565b60008073ffffffffffffffffffffffffffffffffffffffff166002600084815260200190815260200160002060009054906101000a900473ffffffffffffffffffffffffffffffffffffffff1673ffffffffffffffffffffffffffffffffffffffff1614159050919050565b600033905090565b816004600083815260200190815260200160002060006101000a81548173ffffffffffffffffffffffffffffffffffffffff021916908373ffffffffffffffffffffffffffffffffffffffff160217905550808273ffffffffffffffffffffffffffffffffffffffff16611504836109af565b73ffffffffffffffffffffffffffffffffffffffff167f8c5be1e5ebec7d5bd14f71427d1e84f3dd0314c0f7b2291e5b200ac8c7c3b92560405160405180910390a45050565b60006115558261141d565b611594576040517f08c379a000000000000000000000000000000000000000000000000000000000815260040161158b906130b9565b60405180910390fd5b600061159f836109af565b90508073ffffffffffffffffffffffffffffffffffffffff168473ffffffffffffffffffffffffffffffffffffffff16148061160e57508373ffffffffffffffffffffffffffffffffffffffff166115f684610556565b73ffffffffffffffffffffffffffffffffffffffff16145b8061161f575061161e8185611286565b5b91505092915050565b8273ffffffffffffffffffffffffffffffffffffffff16611648826109af565b73ffffffffffffffffffffffffffffffffffffffff161461169e576040517f08c379a000000000000000000000000000000000000000000000000000000000815260040161169590613039565b60405180910390fd5b600073ffffffffffffffffffffffffffffffffffffffff168273ffffffffffffffffffffffffffffffffffffffff16141561170e576040517f08c379a000000000000000000000000000000000000000000000000000000000815260040161170590613079565b60405180910390fd5b6117198383836120ce565b611724600082611491565b6001600360008573ffffffffffffffffffffffffffffffffffffffff1673ffffffffffffffffffffffffffffffffffffffff168152602001908152602001600020600082825461177491906133e3565b925050819055506001600360008473ffffffffffffffffffffffffffffffffffffffff1673ffffffffffffffffffffffffffffffffffffffff16815260200190815260200160002060008282546117cb9190613302565b92505081905550816002600083815260200190815260200160002060006101000a81548173ffffffffffffffffffffffffffffffffffffffff021916908373ffffffffffffffffffffffffffffffffffffffff160217905550808273ffffffffffffffffffffffffffffffffffffffff168473ffffffffffffffffffffffffffffffffffffffff167fddf252ad1be2c89b69c2b068fc378daa952ba7f163c4a11628f55a4df523b3ef60405160405180910390a461188a8383836120d3565b505050565b606060008214156118d7576040518060400160405280600181526020017f30000000000000000000000000000000000000000000000000000000000000008152509050611a37565b600082905060005b600082146119095780806118f290613530565b915050600a826119029190613358565b91506118df565b60008167ffffffffffffffff81111561194b577f4e487b7100000000000000000000000000000000000000000000000000000000600052604160045260246000fd5b6040519080825280601f01601f19166020018201604052801561197d5781602001600182028036833780820191505090505b5090505b60008514611a305760018261199691906133e3565b9150600a856119a59190613579565b60306119b19190613302565b60f81b8183815181106119ed577f4e487b7100000000000000000000000000000000000000000000000000000000600052603260045260246000fd5b60200101907effffffffffffffffffffffffffffffffffffffffffffffffffffffffffffff1916908160001a905350600a85611a299190613358565b9450611981565b8093505050505b919050565b600081604051602001611a4f9190612d3a565b6040516020818303038152906040528051906020012060001c9050919050565b8173ffffffffffffffffffffffffffffffffffffffff168373ffffffffffffffffffffffffffffffffffffffff161415611ade576040517f08c379a0000000000000000000000000000000000000000000000000000000008152600401611ad590613099565b60405180910390fd5b80600560008573ffffffffffffffffffffffffffffffffffffffff1673ffffffffffffffffffffffffffffffffffffffff16815260200190815260200160002060008473ffffffffffffffffffffffffffffffffffffffff1673ffffffffffffffffffffffffffffffffffffffff16815260200190815260200160002060006101000a81548160ff0219169083151502179055508173ffffffffffffffffffffffffffffffffffffffff168373ffffffffffffffffffffffffffffffffffffffff167f17307eab39ab6107e8899845ad3d59bd9653f200f220920489ca2b5937696c3183604051611bcf9190612f6e565b60405180910390a3505050565b611c748282604051602401611bf2929190612fab565b6040516020818303038152906040527f9710a9d0000000000000000000000000000000000000000000000000000000007bffffffffffffffffffffffffffffffffffffffffffffffffffffffff19166020820180517bffffffffffffffffffffffffffffffffffffffffffffffffffffffff83818316178352505050506120a5565b5050565b611c83848484611628565b611c8f848484846120d8565b611cce576040517f08c379a0000000000000000000000000000000000000000000000000000000008152600401611cc590613019565b60405180910390fd5b50505050565b606060405180602001604052806000815250905090565b6060611cf68261141d565b611d35576040517f08c379a0000000000000000000000000000000000000000000000000000000008152600401611d2c906131b9565b60405180910390fd5b6000611d3f611cd4565b90506000815111611d5f5760405180602001604052806000815250611d8a565b80611d698461188f565b604051602001611d7a929190612d51565b6040516020818303038152906040525b915050919050565b600081600001549050919050565b60606000825190506000811415611dc95760405180602001604052806000815250915050611f59565b60006003600283611dda9190613302565b611de49190613358565b6004611df09190613389565b90506000602082611e019190613302565b67ffffffffffffffff811115611e40577f4e487b7100000000000000000000000000000000000000000000000000000000600052604160045260246000fd5b6040519080825280601f01601f191660200182016040528015611e725781602001600182028036833780820191505090505b5090506000604051806060016040528060408152602001613d83604091399050600181016020830160005b86811015611f165760038101905062ffffff818a015116603f8160121c168401518060081b905060ff603f83600c1c1686015116810190508060081b905060ff603f8360061c1686015116810190508060081b905060ff603f831686015116810190508060e01b90508084526004840193505050611e9d565b506003860660018114611f305760028114611f4057611f4b565b613d3d60f01b6002830352611f4b565b603d60f81b60018303525b508484525050819450505050505b919050565b611f7882826040518060200160405280600081525061226f565b5050565b611f858261141d565b611fc4576040517f08c379a0000000000000000000000000000000000000000000000000000000008152600401611fbb90613139565b60405180910390fd5b80600660008481526020019081526020016000209080519060200190611feb9291906124c7565b505050565b61208a83838360405160240161200893929190612fdb565b6040516020818303038152906040527fe3849f79000000000000000000000000000000000000000000000000000000007bffffffffffffffffffffffffffffffffffffffffffffffffffffffff19166020820180517bffffffffffffffffffffffffffffffffffffffffffffffffffffffff83818316178352505050506120a5565b505050565b6001816000016000828254019250508190555050565b60008151905060006a636f6e736f6c652e6c6f679050602083016000808483855afa5050505050565b505050565b505050565b60006120f98473ffffffffffffffffffffffffffffffffffffffff166122ca565b15612262578373ffffffffffffffffffffffffffffffffffffffff1663150b7a02612122611489565b8786866040518563ffffffff1660e01b81526004016121449493929190612ef9565b602060405180830381600087803b15801561215e57600080fd5b505af192505050801561218f57506040513d601f19601f8201168201806040525081019061218c919061280b565b60015b612212573d80600081146121bf576040519150601f19603f3d011682016040523d82523d6000602084013e6121c4565b606091505b5060008151141561220a576040517f08c379a000000000000000000000000000000000000000000000000000000000815260040161220190613019565b60405180910390fd5b805181602001fd5b63150b7a0260e01b7bffffffffffffffffffffffffffffffffffffffffffffffffffffffff1916817bffffffffffffffffffffffffffffffffffffffffffffffffffffffff191614915050612267565b600190505b949350505050565b61227983836122ed565b61228660008484846120d8565b6122c5576040517f08c379a00000000000000000000000000000000000000000000000000000000081526004016122bc90613019565b60405180910390fd5b505050565b6000808273ffffffffffffffffffffffffffffffffffffffff163b119050919050565b600073ffffffffffffffffffffffffffffffffffffffff168273ffffffffffffffffffffffffffffffffffffffff16141561235d576040517f08c379a000000000000000000000000000000000000000000000000000000000815260040161235490613159565b60405180910390fd5b6123668161141d565b156123a6576040517f08c379a000000000000000000000000000000000000000000000000000000000815260040161239d90613059565b60405180910390fd5b6123b2600083836120ce565b6001600360008473ffffffffffffffffffffffffffffffffffffffff1673ffffffffffffffffffffffffffffffffffffffff16815260200190815260200160002060008282546124029190613302565b92505081905550816002600083815260200190815260200160002060006101000a81548173ffffffffffffffffffffffffffffffffffffffff021916908373ffffffffffffffffffffffffffffffffffffffff160217905550808273ffffffffffffffffffffffffffffffffffffffff16600073ffffffffffffffffffffffffffffffffffffffff167fddf252ad1be2c89b69c2b068fc378daa952ba7f163c4a11628f55a4df523b3ef60405160405180910390a46124c3600083836120d3565b5050565b8280546124d3906134cd565b90600052602060002090601f0160209004810192826124f5576000855561253c565b82601f1061250e57805160ff191683800117855561253c565b8280016001018555821561253c579182015b8281111561253b578251825591602001919060010190612520565b5b509050612549919061254d565b5090565b5b8082111561256657600081600090555060010161254e565b5090565b600061257d61257884613279565b613254565b90508281526020810184848401111561259557600080fd5b6125a084828561348b565b509392505050565b6000813590506125b781613d01565b92915050565b6000813590506125cc81613d18565b92915050565b6000813590506125e181613d2f565b92915050565b6000815190506125f681613d2f565b92915050565b600082601f83011261260d57600080fd5b813561261d84826020860161256a565b91505092915050565b60008135905061263581613d46565b92915050565b60006020828403121561264d57600080fd5b600061265b848285016125a8565b91505092915050565b6000806040838503121561267757600080fd5b6000612685858286016125a8565b9250506020612696858286016125a8565b9150509250929050565b6000806000606084860312156126b557600080fd5b60006126c3868287016125a8565b93505060206126d4868287016125a8565b92505060406126e586828701612626565b9150509250925092565b6000806000806080858703121561270557600080fd5b6000612713878288016125a8565b9450506020612724878288016125a8565b935050604061273587828801612626565b925050606085013567ffffffffffffffff81111561275257600080fd5b61275e878288016125fc565b91505092959194509250565b6000806040838503121561277d57600080fd5b600061278b858286016125a8565b925050602061279c858286016125bd565b9150509250929050565b600080604083850312156127b957600080fd5b60006127c7858286016125a8565b92505060206127d885828601612626565b9150509250929050565b6000602082840312156127f457600080fd5b6000612802848285016125d2565b91505092915050565b60006020828403121561281d57600080fd5b600061282b848285016125e7565b91505092915050565b60006020828403121561284657600080fd5b600061285484828501612626565b91505092915050565b61286681613417565b82525050565b61287581613429565b82525050565b6000612886826132bf565b61289081856132d5565b93506128a081856020860161349a565b6128a981613666565b840191505092915050565b60006128bf826132ca565b6128c981856132e6565b93506128d981856020860161349a565b6128e281613666565b840191505092915050565b60006128f8826132ca565b61290281856132f7565b935061291281856020860161349a565b80840191505092915050565b6000815461292b816134cd565b61293581866132f7565b94506001821660008114612950576001811461296157612994565b60ff19831686528186019350612994565b61296a856132aa565b60005b8381101561298c5781548189015260018201915060208101905061296d565b838801955050505b50505092915050565b60006129aa6032836132e6565b91506129b582613677565b604082019050919050565b60006129cd6025836132e6565b91506129d8826136c6565b604082019050919050565b60006129f0601c836132e6565b91506129fb82613715565b602082019050919050565b6000612a13600a836132f7565b9150612a1e8261373e565b600a82019050919050565b6000612a366024836132e6565b9150612a4182613767565b604082019050919050565b6000612a596019836132e6565b9150612a64826137b6565b602082019050919050565b6000612a7c600b836132f7565b9150612a87826137df565b600b82019050919050565b6000612a9f602c836132e6565b9150612aaa82613808565b604082019050919050565b6000612ac2600d836132f7565b9150612acd82613857565b600d82019050919050565b6000612ae56038836132e6565b9150612af082613880565b604082019050919050565b6000612b08602a836132e6565b9150612b13826138cf565b604082019050919050565b6000612b2b6029836132e6565b9150612b368261391e565b604082019050919050565b6000612b4e602e836132e6565b9150612b598261396d565b604082019050919050565b6000612b716002836132f7565b9150612b7c826139bc565b600282019050919050565b6000612b946020836132e6565b9150612b9f826139e5565b602082019050919050565b6000612bb76031836132e6565b9150612bc282613a0e565b604082019050919050565b6000612bda602c836132e6565b9150612be582613a5d565b604082019050919050565b6000612bfd602f836132e6565b9150612c0882613aac565b604082019050919050565b6000612c20600a836132f7565b9150612c2b82613afb565b600a82019050919050565b6000612c436021836132e6565b9150612c4e82613b24565b604082019050919050565b6000612c66600a836132f7565b9150612c7182613b73565b600a82019050919050565b6000612c89602b836132e6565b9150612c9482613b9c565b604082019050919050565b6000612cac601d836132f7565b9150612cb782613beb565b601d82019050919050565b6000612ccf6031836132e6565b9150612cda82613c14565b604082019050919050565b6000612cf26005836132f7565b9150612cfd82613c63565b600582019050919050565b6000612d156059836132f7565b9150612d2082613c8c565b605982019050919050565b612d3481613481565b82525050565b6000612d4682846128ed565b915081905092915050565b6000612d5d82856128ed565b9150612d6982846128ed565b91508190509392505050565b6000612d8182866128ed565b9150612d8d82856128ed565b9150612d9982846128ed565b9150819050949350505050565b6000612db2828761291e565b9150612dbe82866128ed565b9150612dca828561291e565b9150612dd682846128ed565b9150612de182612ab5565b915081905095945050505050565b6000612dfa82612a06565b9150612e0682846128ed565b915081905092915050565b6000612e1c82612a6f565b9150612e2882846128ed565b915081905092915050565b6000612e3e82612c13565b9150612e4a82856128ed565b9150612e5582612d08565b9150612e6182846128ed565b9150612e6c82612b64565b91508190509392505050565b6000612e8382612c59565b9150612e8f82846128ed565b915081905092915050565b6000612ea582612c9f565b9150612eb182846128ed565b915081905092915050565b6000612ec782612ce5565b9150612ed382846128ed565b915081905092915050565b6000602082019050612ef3600083018461285d565b92915050565b6000608082019050612f0e600083018761285d565b612f1b602083018661285d565b612f286040830185612d2b565b8181036060830152612f3a818461287b565b905095945050505050565b6000604082019050612f5a600083018561285d565b612f676020830184612d2b565b9392505050565b6000602082019050612f83600083018461286c565b92915050565b60006020820190508181036000830152612fa381846128b4565b905092915050565b60006040820190508181036000830152612fc581856128b4565b9050612fd46020830184612d2b565b9392505050565b60006060820190508181036000830152612ff581866128b4565b90506130046020830185612d2b565b613011604083018461285d565b949350505050565b600060208201905081810360008301526130328161299d565b9050919050565b60006020820190508181036000830152613052816129c0565b9050919050565b60006020820190508181036000830152613072816129e3565b9050919050565b6000602082019050818103600083015261309281612a29565b9050919050565b600060208201905081810360008301526130b281612a4c565b9050919050565b600060208201905081810360008301526130d281612a92565b9050919050565b600060208201905081810360008301526130f281612ad8565b9050919050565b6000602082019050818103600083015261311281612afb565b9050919050565b6000602082019050818103600083015261313281612b1e565b9050919050565b6000602082019050818103600083015261315281612b41565b9050919050565b6000602082019050818103600083015261317281612b87565b9050919050565b6000602082019050818103600083015261319281612baa565b9050919050565b600060208201905081810360008301526131b281612bcd565b9050919050565b600060208201905081810360008301526131d281612bf0565b9050919050565b600060208201905081810360008301526131f281612c36565b9050919050565b6000602082019050818103600083015261321281612c7c565b9050919050565b6000602082019050818103600083015261323281612cc2565b9050919050565b600060208201905061324e6000830184612d2b565b92915050565b600061325e61326f565b905061326a82826134ff565b919050565b6000604051905090565b600067ffffffffffffffff82111561329457613293613637565b5b61329d82613666565b9050602081019050919050565b60008190508160005260206000209050919050565b600081519050919050565b600081519050919050565b600082825260208201905092915050565b600082825260208201905092915050565b600081905092915050565b600061330d82613481565b915061331883613481565b9250827fffffffffffffffffffffffffffffffffffffffffffffffffffffffffffffffff0382111561334d5761334c6135aa565b5b828201905092915050565b600061336382613481565b915061336e83613481565b92508261337e5761337d6135d9565b5b828204905092915050565b600061339482613481565b915061339f83613481565b9250817fffffffffffffffffffffffffffffffffffffffffffffffffffffffffffffffff04831182151516156133d8576133d76135aa565b5b828202905092915050565b60006133ee82613481565b91506133f983613481565b92508282101561340c5761340b6135aa565b5b828203905092915050565b600061342282613461565b9050919050565b60008115159050919050565b60007fffffffff0000000000000000000000000000000000000000000000000000000082169050919050565b600073ffffffffffffffffffffffffffffffffffffffff82169050919050565b6000819050919050565b82818337600083830152505050565b60005b838110156134b857808201518184015260208101905061349d565b838111156134c7576000848401525b50505050565b600060028204905060018216806134e557607f821691505b602082108114156134f9576134f8613608565b5b50919050565b61350882613666565b810181811067ffffffffffffffff8211171561352757613526613637565b5b80604052505050565b600061353b82613481565b91507fffffffffffffffffffffffffffffffffffffffffffffffffffffffffffffffff82141561356e5761356d6135aa565b5b600182019050919050565b600061358482613481565b915061358f83613481565b92508261359f5761359e6135d9565b5b828206905092915050565b7f4e487b7100000000000000000000000000000000000000000000000000000000600052601160045260246000fd5b7f4e487b7100000000000000000000000000000000000000000000000000000000600052601260045260246000fd5b7f4e487b7100000000000000000000000000000000000000000000000000000000600052602260045260246000fd5b7f4e487b7100000000000000000000000000000000000000000000000000000000600052604160045260246000fd5b6000601f19601f8301169050919050565b7f4552433732313a207472616e7366657220746f206e6f6e20455243373231526560008201527f63656976657220696d706c656d656e7465720000000000000000000000000000602082015250565b7f4552433732313a207472616e736665722066726f6d20696e636f72726563742060008201527f6f776e6572000000000000000000000000000000000000000000000000000000602082015250565b7f4552433732313a20746f6b656e20616c7265616479206d696e74656400000000600082015250565b7f54484952445f574f524400000000000000000000000000000000000000000000600082015250565b7f4552433732313a207472616e7366657220746f20746865207a65726f2061646460008201527f7265737300000000000000000000000000000000000000000000000000000000602082015250565b7f4552433732313a20617070726f766520746f2063616c6c657200000000000000600082015250565b7f5345434f4e445f574f5244000000000000000000000000000000000000000000600082015250565b7f4552433732313a206f70657261746f7220717565727920666f72206e6f6e657860008201527f697374656e7420746f6b656e0000000000000000000000000000000000000000602082015250565b7f3c2f746578743e3c2f7376673e00000000000000000000000000000000000000600082015250565b7f4552433732313a20617070726f76652063616c6c6572206973206e6f74206f7760008201527f6e6572206e6f7220617070726f76656420666f7220616c6c0000000000000000602082015250565b7f4552433732313a2062616c616e636520717565727920666f7220746865207a6560008201527f726f206164647265737300000000000000000000000000000000000000000000602082015250565b7f4552433732313a206f776e657220717565727920666f72206e6f6e657869737460008201527f656e7420746f6b656e0000000000000000000000000000000000000000000000602082015250565b7f45524337323155524953746f726167653a2055524920736574206f66206e6f6e60008201527f6578697374656e7420746f6b656e000000000000000000000000000000000000602082015250565b7f227d000000000000000000000000000000000000000000000000000000000000600082015250565b7f4552433732313a206d696e7420746f20746865207a65726f2061646472657373600082015250565b7f45524337323155524953746f726167653a2055524920717565727920666f722060008201527f6e6f6e6578697374656e7420746f6b656e000000000000000000000000000000602082015250565b7f4552433732313a20617070726f76656420717565727920666f72206e6f6e657860008201527f697374656e7420746f6b656e0000000000000000000000000000000000000000602082015250565b7f4552433732314d657461646174613a2055524920717565727920666f72206e6f60008201527f6e6578697374656e7420746f6b656e0000000000000000000000000000000000602082015250565b7f7b226e616d65223a202200000000000000000000000000000000000000000000600082015250565b7f4552433732313a20617070726f76616c20746f2063757272656e74206f776e6560008201527f7200000000000000000000000000000000000000000000000000000000000000602082015250565b7f46495253545f574f524400000000000000000000000000000000000000000000600082015250565b7f546865204d6178696d756e204e756d626572206f66204e46547320686173206260008201527f65656e204d696e74656421000000000000000000000000000000000000000000602082015250565b7f646174613a6170706c69636174696f6e2f6a736f6e3b6261736536342c000000600082015250565b7f4552433732313a207472616e736665722063616c6c6572206973206e6f74206f60008201527f776e6572206e6f7220617070726f766564000000000000000000000000000000602082015250565b7f434f4c4f52000000000000000000000000000000000000000000000000000000600082015250565b7f222c20226465736372697074696f6e223a20227370616e6973683a204c6f636160008201527f7320496465617320646520436f6d6964612e222c2022696d616765223a20226460208201527f6174613a696d6167652f7376672b786d6c3b6261736536342c00000000000000604082015250565b613d0a81613417565b8114613d1557600080fd5b50565b613d2181613429565b8114613d2c57600080fd5b50565b613d3881613435565b8114613d4357600080fd5b50565b613d4f81613481565b8114613d5a57600080fd5b5056fe416e204e465420772f20494420257320686173206265656e206d696e74656420746f2025734142434445464748494a4b4c4d4e4f505152535455565758595a6162636465666768696a6b6c6d6e6f707172737475767778797a303132333435363738392b2fa264697066735822122072f8058a02d027f6a22a0839e3dafbd7bb63817b2812e2f33db12377a4de5e2964736f6c634300080100333c73766720786d6c6e733d27687474703a2f2f7777772e77332e6f72672f323030302f73766727207072657365727665417370656374526174696f3d27784d696e594d696e206d656574272076696577426f783d273020302033353020333530273e3c7374796c653e2e62617365207b2066696c6c3a207265643b20666f6e742d66616d696c793a2073657269663b20666f6e742d73697a653a20323470783b207d3c2f7374796c653e3c726563742077696474683d273130302527206865696768743d2731303025272066696c6c3d27272f3e3c7465787420783d273530252720793d273530252720636c6173733d27626173652720646f6d696e616e742d626173656c696e653d276d6964646c652720746578742d616e63686f723d276d6964646c65273e",
  "linkReferences": {},
  "deployedLinkReferences": {}
}